:100000000C94E9000C9411010C9411010C94110151
:100010000C9411010C9411010C9411010C94110118
:100020000C9411010C9411010C94F7050C946606C4
:100030000C9411010C9411010C9411010C941101F8
:100040000C9411010C9411010C9411010C941101E8
:100050000C9411010C9411010C9411010C9498084A
:100060000C9411010C9411010C9411010C941101C8
:100070000C9411010C9411010C9411010C941101B8
:100080000C9411010C9411010C9411010C941101A8
:100090000C9411010C9411010C9411010C94110198
:1000A0000C9411010C9411010C941101000000003A
:1000B000000000002A2B28000000000000000000C3
:1000C0000000000000000000000000002C9EB4A012
:1000D000A1A2A434A6A7A5AE362D3738271E1F200F
:1000E000212223242526B333B62EB7B89F848586D4
:1000F0008788898A8B8C8D8E8F9091929394959618
:100100009798999A9B9C9D2F3130A3AD3504050695
:100110000708090A0B0C0D0E0F10111213141516F7
:100120001718191A1B1C1DAFB1B0B500080B00023F
:100130000202000009040000010202000005240080
:100140001001052401010104240206052406000112
:100150000705810310004009040100020A000000A5
:100160000705020240000007058302400000040367
:10017000090412010002EF02014041233680000110
:100180000102030141726475696E6F204C4C43009B
:1001900041726475696E6F204C656F6E6172646F39
:1001A0000005010906A1018502050719E029E715E7
:1001B0000025017501950881029501750881039557
:1001C000067508150025730507190029738100C0FD
:1001D000E20811241FBECFEFDAE0DEBFCDBF11E091
:1001E000A0E0B1E0E0EFF4E102C005900D92A2358D
:1001F000B107D9F721E0A2E5B1E001C01D92A43F0B
:10020000B207E1F710E0C9EED0E004C02197FE018B
:100210000E94700AC83ED107C9F70E9474090C9465
:10022000760A0C940000CF93DF93FC0181819091BA
:10023000C501482F490F5527551F483051059CF5DA
:10024000A281B381109709F521EC31E03383228339
:1002500020812093C3018093C4018091C601820F45
:1002600080832091C701A22FB091C8018A2F821BE1
:100270008917E8F481813D91C82FD0E0C45FDE4F3B
:1002800038838F5F8183F2CFD90118962D913C91ED
:10029000199721153105C1F721EC31E019963C93EE
:1002A0002E931897D5CF80E0DF91CF91089581E00C
:1002B000FBCFFC0180917001882311F13FB7F894C6
:1002C00082E08093E9002091F200822F90E01816DE
:1002D000190614F481E090E0882339F0289844E668
:1002E00040936F014091F1004083222339F0209127
:1002F000F200211103C02BE62093E8003FBF0895D0
:100300008FEF9FEF0895CF93DF931F92CDB7DEB7A6
:100310006983DC01ED91FC910280F381E02D41E0E5
:1003200050E0BE016F5F7F4F09950F90DF91CF9135
:10033000089583E08093E9008091F200882319F00A
:100340008AE38093E8000895CF93DF931F92CDB79F
:10035000DEB7FC018485958597FD08C02FEF3FEF40
:10036000358724870F90DF91CF910895CE010196B4
:100370000E945901019719F4898190E0F3CF8FEF22
:100380009FEFF0CF0F931F93CF93DF931F92CDB7C3
:10039000DEB78C01FC018485958597FF0BC0CE01EB
:1003A00001960E945901019771F4898190E0F8014A
:1003B00095878487F801848595850F90DF91CF918B
:1003C0001F910F9108958FEF9FEFF1CFFC0184856E
:1003D000958597FD0BC09FB7F89482E08093E90064
:1003E0008091F2009FBF90E0019608959FB7F89426
:1003F00082E08093E9008091F2009FBF90E0089531
:100400004091690150916A01209167013091680122
:1004100042175307B4F49091E8009570E1F390917E
:10042000E80092FD19C08093F100809169019091DC
:100430006A0101968F739927892B19F48EEF8093A7
:10044000E8008091690190916A01019690936A0198
:100450008093690181E0089580E00895EF92FF9212
:100460000F931F93CF93DF93F82E192FE62E042FAF
:1004700081E0860F880F0E94000283E00E94000244
:10048000CF2DD12FEC0EFD2EF11CCE15DF05B9F0CE
:1004900007FF13C0FE0184910E940002182F80E024
:1004A0000E940002812321968111EFCFDF91CF912D
:1004B0001F910F91FF90EF9008958881EDCF81E01B
:1004C000F5CFDF92EF92FF920F931F93CF93DF93BD
:1004D000D82E8A01EB017B01E40EF51ECE15DF0557
:1004E00059F0D7FE12C0FE0184910E9400022196AD
:1004F0008111F4CF0FEF1FEFC801DF91CF911F9152
:100500000F91FF90EF90DF9008958881EECF2FB785
:10051000F89487708093E9009091E800892F8072A9
:1005200095FF04C09091F20080E4891B2FBF0895CD
:1005300083E00E94870290E00895615030F020919E
:10054000F100FC0120830196F8CF289884E680937F
:100550006F01089580915F0181110DC082E0809349
:100560005B0184E080935C0110925E0110925D015A
:1005700081E080935F018BE591E008950F931F93D5
:10058000CF93DF931F92CDB7DEB782E0898342E439
:1005900050E06CE271E080E80E9461020E94AA02D1
:1005A000DC0112960D911C910115110589F0D801FD
:1005B000ED91FC910280F381E02DBE016F5F7F4FD2
:1005C000C801099597FD04C0F80100851185ECCF9D
:1005D00089810F90DF91CF911F910F9108953FB7BF
:1005E000F8948091570190915801A0915901B091D0
:1005F0005A0126B5A89B05C02F3F19F00196A11DF1
:10060000B11D3FBFBA2FA92F982F8827BC01CD015C
:10061000620F711D811D911D42E0660F771F881FBB
:10062000991F4A95D1F708958F929F92AF92BF92EA
:10063000CF92DF92EF92FF924B015C010E94EF029A
:100640006B017C010E94EF026C197D098E099F09E4
:10065000683E734081059105A8F321E0821A910854
:10066000A108B10888EEC80E83E0D81EE11CF11C79
:1006700081149104A104B10429F7FF90EF90DF9059
:10068000CF90BF90AF909F908F9008957F928F9260
:100690009F92AF92BF92CF92DF92EF92FF920F9311
:1006A0001F93CF93DF93C82E8B017A018091700145
:1006B000811110C08FEF9FEFDF91CF911F910F91AC
:1006C000FF90EF90DF90CF90BF90AF909F908F9072
:1006D0007F90089580916D0180FF05C08091E000BA
:1006E00082608093E000CE2DDF2DD12C8AEFB82ED2
:1006F0008C2D8770982E8C2D8072882E8C2D807476
:10070000782E9AE3A92E209719F4DD2009F452C01F
:100710008C2D0E94870281110AC0BA94BB2051F22D
:1007200061E070E080E090E00E941403ECCF8C1751
:100730001D0611F00CF08C2F9FB7F8949092E900F1
:100740002091E80025FD02C09FBFDDCF282F30E0BB
:10075000C21BD30B882029F08150A0F01092F10029
:10076000FBCFF801C7FC0AC0815050F04191409383
:10077000F100FACF44914093F10031968150D0F7C7
:10078000020F131FDD2021F0A092E800D12CDCCF56
:100790008091E80085FD07C0A092E800DD24D39495
:1007A000209791F2F3CF209779F6772069F2A09203
:1007B000E800CACF5D9884E680936C01C7017CCFC6
:1007C000EF92FF921F93CF93DF931F92CDB7DEB7C7
:1007D0007C018091D20181112AC011E01093C501E2
:1007E0001093C6018BEC91E09093C8018093C701F0
:1007F0001092CA011092C90189E291E09093C2015E
:100800008093C1011092CD011092CC011092CF01C2
:100810001092CE011093D0011093D10181EC8093FE
:10082000CB010E94AA020E9413011093D20182E020
:10083000898341E050E0BE016F5F7F4F8091C4012A
:100840000E94460397FD08C08091C40148E050E033
:10085000B70180640E9446030F90DF91CF911F91F2
:10086000FF90EF900895E8EEF1E01682178210866F
:1008700011861286138614828CEE91E00C94E003AC
:10088000CF93DF93EC0180910B01882331F083E05B
:100890000E9446031816190634F081E090E09B830D
:1008A0008A8380E090E0DF91CF910895DC01FB0125
:1008B00012962C911297848195812817190641F47C
:1008C00091818081813A31F49D7F81E0913009F0FE
:1008D00080E008958132E1F79B3029F482811F96F0
:1008E0008C9381E008959A3099F7828150968C9389
:1008F000F8CFDC01FB0188E4808389E4818384E410
:1009000082831D969C911D979F709F5B93831D967C
:100910008D919C9124E0969587952A95E1F78F70AB
:100920008F5B848385E00895EF92FF920F931F936E
:10093000CF93DF93FB012081213871F5238122328F
:1009400059F5DC0112964C9124813581421713062A
:1009500019F5EC010B851C85F12CE12C0115110515
:1009600089F0F801448155816281738180E80E9499
:1009700061028F3F980749F0E80EF91ED8010D91EA
:100980001C91ECCF81E08F87C701DF91CF911F9140
:100990000F91FF90EF90089590E080E0F6CFCF9315
:1009A000DF93CDB7DEB769970FB6F894DEBF0FBE01
:1009B000CDBFFC01DB018C918F5F8C939E012D5F7D
:1009C0003F4F8DE0D9011D928A95E9F729E02983EF
:1009D00084E08A8391E09D8383E08E832A8721E2ED
:1009E0002B879C879D879F8722E2288B27E02B8B74
:1009F00025E02C8B8E8B20E430E0388F2F8B998F65
:100A000082818B8395858685998B8A8B838180688B
:100A10008D8B49E150E0BE016F5F7F4F80E00E9407
:100A2000610269960FB6F894DEBF0FBECDBFDF91AD
:100A3000CF910895CF92DF92EF92FF920F931F9381
:100A4000CF93DF936C01EB017B01E40EF51E10E008
:100A500000E0CE15DF0581F069916D30D1F3D6014C
:100A6000ED91FC910190F081E02DC6010995892B53
:100A700019F00F5F1F4FEDCFC801DF91CF911F918C
:100A80000F91FF90EF90DF90CF900895DC016838D0
:100A900088F1685816968C911697861721F117964B
:100AA0008C9117978617F9F018968C9118978617DE
:100AB000D1F019968C9119978617A9F01A968C91F6
:100AC0001A97861781F01B968C911B97861759F001
:100AD000FD01369690E080E02191211139C08A0F06
:100AE0009B1FFC016683CD0104960E94E00381E018
:100AF00090E00895E62FF0E067FF11C0E058F1099B
:100B000021E030E001C0220FEA95EAF714968C91BB
:100B10001497822B14968C93149760E0BBCFE45506
:100B2000FF4F6491611109C081E090E013969C939E
:100B30008E93129790E080E0089567FFABCF1496F4
:100B40008C911497826014968C9314976F77A2CF30
:100B500001968630910509F0BFCFE6CFEF92FF9264
:100B60000F931F93CF938C01C62F0E9446057C01E3
:100B7000C838C8F0C858F80186E0CC2321F0968127
:100B8000C91301C01682815031968111F6CFC80178
:100B900004960E94E003C7019927CF911F910F91FE
:100BA000FF90EF900895EC2FF0E0C7FF0FC0E058E2
:100BB000F10981E090E001C0880FEA95EAF780959D
:100BC000F801948189238483C0E0D5CFE455FF4F99
:100BD000C491CC2301F3C7FFCECFF80184818D7F70
:100BE0008483CF77C8CF089590E080E008951F9266
:100BF0000F920FB60F9211248F939F938091E10073
:100C00009091E100937F9093E10083FF0FC01092D9
:100C1000E90091E09093EB001092EC0092E3909346
:100C2000ED001092700198E09093F00082FF22C0D6
:100C300093E09093E9009091F200992319F09AE3E0
:100C40009093E80090916C01992341F090916C0190
:100C5000915090936C01911101C05D9A90916F0138
:100C6000992341F090916F01915090936F019111F0
:100C700001C0289A84FF18C08091E2008E7E8160B6
:100C80008093E2008091E1008F7E8093E10080916B
:100C90006D018E7E806180936D019F918F910F9089
:100CA0000FBE0F901F90189580FFF7CF8091E20044
:100CB0008E7E80618093E2008091E1008E7E809341
:100CC000E10080916D018E7E8160E5CF1F920F92D1
:100CD0000FB60F921124CF92DF92EF92FF920F93F3
:100CE0001F932F933F934F935F936F937F938F93B4
:100CF0009F93AF93BF93EF93FF93CF93DF93CDB7C2
:100D0000DEB76C97DEBFCDBF1092E9008091E8009E
:100D100083FF25C068E0CE0145960E949D0282EFC8
:100D20008093E8008D8987FF39C09091E80090FF9B
:100D3000FCCF982F907609F034C19E894F89588D49
:100D40002F89F88C911131C0803861F580916E0146
:100D50008093F1001092F1008EEF8093E8006C9682
:100D60000FB6F894DEBF0FBECDBFDF91CF91FF91DC
:100D7000EF91BF91AF919F918F917F916F915F9113
:100D80004F913F912F911F910F91FF90EF90DF9026
:100D9000CF900F900FBE0F901F9018959EEF9093DD
:100DA000E800C7CF1092F100D5CF913059F48111EE
:100DB000D3CF4130510581F680916E018D7F8093B4
:100DC0006E01CACF933049F48111C6CF413051052D
:100DD00019F680916E018260F2CF953041F48091D6
:100DE000E80080FFFCCF20682093E300B5CF963069
:100DF00009F0A9C00B8D1C8D22E01092E900109221
:100E00006A0110926901F2122EC0109268011092CC
:100E100067010E94BE021F8299E09983FA8291E0E5
:100E20009E8390EA98879AEF998720916901309183
:100E30006A01275F3F4F3C832B838D831092E9002B
:100E400010926A0110926901109368010093670182
:100E500049E050E0BE016F5F7F4F80E00E94610279
:100E60000E94BE0279CF10936801009367010E942F
:100E7000AA02DC0112960D911C910115110509F4CD
:100E800051C1D801ED91FC910480F581E02DBE01A6
:100E90006B5E7F4FC8010995009709F03EC1F801CC
:100EA00000851185EACFF3E0FF120EC08F898823F9
:100EB00009F440C0823061F440E860E180E991E0EB
:100EC0000E942E02811148CF81E28093EB0047CF30
:100ED000813029F440E86BE084E891E0F1CF833081
:100EE00099F70E94AA02DC011296ED90FC908E0107
:100EF0000F5F1F4F6801E114F10479F0D701ED9104
:100F0000FC910680F781E02DB801C7010995080F13
:100F1000111DF701E084F184EECFD8011C92F60197
:100F200001900020E9F73197BF016C197D0940E07D
:100F3000C601C6CF6EE671E0FB01449150E080E847
:100F40000E94610209CF973009F4BECF983021F496
:100F500081E08093F10000CF993009F0FDCE8370DD
:100F600009F0B2CFEDE0F1E081E031E096E32191CC
:100F7000222371F08093E9003093EB00DF01119799
:100F80002C912093EC009093ED008F5F873079F7E0
:100F90008EE78093EA001092EA008F8980937001B7
:100FA000DBCE8B8D9C8D1092E90010926A0110921D
:100FB00069019093680180936701898D811192C0C6
:100FC0008E899D89913A49F4813209F07DCF47E0BD
:100FD00050E064E071E080E0B3CF913209F074CF6B
:100FE000833269F48F89988DB0E0A0E0809300018E
:100FF00090930101A0930201B0930301ADCE803222
:1010000069F48091E80082FFFCCF67E084E091E022
:101010000E949D028BEF8093E8009ECE823209F001
:101020009BCE8F8980930B01EEEFFFE78591949122
:101030008B3F9C4D51F1E0E0F8E0809104019091EC
:101040000501A0910601B0910701803B9440A105E4
:10105000B105F1F480910B0180FD1AC0EE3F8AE0EA
:10106000F80789F587E797E791838083809160008F
:1010700080936B0188E19BE00FB6F894A89580936C
:1010800060000FBE9093600067CEEEEFFAE0D5CF20
:10109000808191818737974709F05ECEA89580912E
:1010A000600088618093600080916B018093600094
:1010B000EE3F2AE0F20789F08091FE0A9091FF0A44
:1010C0009183808349CE808191818737980751F23F
:1010D0009093FF0A8093FE0AC5CF1092FF0A1092E8
:1010E000FE0A3ACE0E94AA02DC0112960D911C91D2
:1010F0000115110509F4E8CED801ED91FC9101909C
:10110000F081E02DBE016B5E7F4FC8010995811112
:1011100023CEF80100851185EBCF181619060CF4C3
:101120001BCED2CEF1E0FF12BECE62E771E004CF5B
:101130001F920F920FB60F9211242F933F938F930C
:101140009F93AF93BF938091530190915401A091CD
:101150005501B09156013091520123E0230F2D37F4
:1011600058F50196A11DB11D2093520180935301A2
:1011700090935401A0935501B0935601809157016B
:1011800090915801A0915901B0915A010196A11D69
:10119000B11D8093570190935801A0935901B093CA
:1011A0005A01BF91AF919F918F913F912F910F90D5
:1011B0000FBE0F901F90189526E8230F0296A11DD1
:1011C000B11DD2CFCF93109274011092730188EEAB
:1011D00093E0A0E0B0E08093750190937601A09336
:1011E0007701B093780187E191E090937201809349
:1011F00071018FEF9FEF90937E0180937D0110929C
:10120000EB011092EA0185E391E09093E90180936C
:10121000E8018091E001811113C01092DB0110926E
:10122000DA0181EA91E09093DD018093DC018FE2A5
:1012300090E09093DF018093DE0181E08093E001F4
:101240008091D20181112AC0C1E0C093C501C09331
:10125000C6018BEC91E09093C8018093C701109276
:10126000CA011092C90189E291E09093C201809372
:10127000C1011092CD011092CC011092CF011092B9
:10128000CE01C093D001C093D10181EC8093CB01FA
:101290000E94AA020E941301C093D201E091CC01E6
:1012A000F091CD013097B9F48AED91E09093CD01A2
:1012B0008093CC018091CE019091CF012091DE01ED
:1012C0003091DF01820F931F9093CF018093CE0165
:1012D000CF910895FC01808191810097D9F78AED23
:1012E00091E091838083E6CF789484B5826084BD59
:1012F00084B5816084BD85B5826085BD85B581601A
:1013000085BD80916E00816080936E001092810097
:101310008091810082608093810080918100816052
:101320008093810080918000816080938000809113
:101330009100826080939100809191008160809300
:101340009100809190008160809390008091C10015
:1013500084608093C1008091C10082608093C1004D
:101360008091C10081608093C1008091C300816041
:101370008093C3008091C00082608093C000809100
:10138000C20081608093C20080917A008460809363
:101390007A0080917A00826080937A0080917A004E
:1013A000816080937A0080917A00806880937A00CF
:1013B0001092700110926E0110926D018091D70011
:1013C00081608093D70080EA8093D80089B58061DE
:1013D00089BD89B5826089BD09B400FEFDCF61E099
:1013E00070E080E090E00E9414038091D8008F7C30
:1013F00080618093D8008091E000807F8093E0003E
:101400008091E1008E7E8093E1008DE08093E20088
:10141000559A209A68EE73E080E090E00E941403F1
:1014200063E888EE91E00E94460564E688EE91E06C
:101430000E9446050E94330464EF71E080E090E072
:101440000E94140360E888EE91E00E94460562E87D
:1014500088EE91E00E94460563EC88EE91E00E94E0
:1014600046050E94330464EF71E080E090E00E9442
:10147000140348E050E06DE371E088EE91E00E94D3
:101480001A0564EF71E080E090E00E94140360EBC5
:1014900088EE91E00E9446050E94330464EF71E0FB
:1014A00080E090E00E9414034BE050E066E471E0BD
:1014B00088EE91E00E941A0560EB88EE91E00E94B0
:1014C00046050E94330464EF71E080E090E00E94E2
:1014D0001403C0E0D0E02097F1F30E940000FBCF9E
:1014E000EE0FFF1F0590F491E02D0994F894FFCFC3
:1014F000FFFFFFFF00E100000000000000C180814D
:10150000000000000000008301400498029901E6F9
:1015100001A401C201000000005604CF0494047924
:101520000400000000AE051A05F405F3056D6F75A3
:1015300073657061640048656C6C6F20576F726CE6
:02154000640045
:00000001FF
